{
  "contractName": "Adipoli",
  "abi": [
    {
      "inputs": [],
      "stateMutability": "nonpayable",
      "type": "constructor"
    },
    {
      "anonymous": false,
      "inputs": [
        {
          "indexed": true,
          "internalType": "bytes32",
          "name": "id",
          "type": "bytes32"
        }
      ],
      "name": "ChainlinkCancelled",
      "type": "event"
    },
    {
      "anonymous": false,
      "inputs": [
        {
          "indexed": true,
          "internalType": "bytes32",
          "name": "id",
          "type": "bytes32"
        }
      ],
      "name": "ChainlinkFulfilled",
      "type": "event"
    },
    {
      "anonymous": false,
      "inputs": [
        {
          "indexed": true,
          "internalType": "bytes32",
          "name": "id",
          "type": "bytes32"
        }
      ],
      "name": "ChainlinkRequested",
      "type": "event"
    },
    {
      "anonymous": false,
      "inputs": [
        {
          "indexed": true,
          "internalType": "address",
          "name": "previousOwner",
          "type": "address"
        },
        {
          "indexed": true,
          "internalType": "address",
          "name": "newOwner",
          "type": "address"
        }
      ],
      "name": "OwnershipTransferred",
      "type": "event"
    },
    {
      "stateMutability": "payable",
      "type": "fallback",
      "payable": true
    },
    {
      "inputs": [],
      "name": "isOwner",
      "outputs": [
        {
          "internalType": "bool",
          "name": "",
          "type": "bool"
        }
      ],
      "stateMutability": "view",
      "type": "function",
      "constant": true
    },
    {
      "inputs": [],
      "name": "owner",
      "outputs": [
        {
          "internalType": "address",
          "name": "",
          "type": "address"
        }
      ],
      "stateMutability": "view",
      "type": "function",
      "constant": true
    },
    {
      "inputs": [
        {
          "internalType": "address",
          "name": "newOwner",
          "type": "address"
        }
      ],
      "name": "transferOwnership",
      "outputs": [],
      "stateMutability": "nonpayable",
      "type": "function"
    },
    {
      "stateMutability": "payable",
      "type": "receive",
      "payable": true
    },
    {
      "inputs": [
        {
          "components": [
            {
              "internalType": "string",
              "name": "policyId",
              "type": "string"
            },
            {
              "internalType": "string",
              "name": "owner",
              "type": "string"
            },
            {
              "internalType": "string",
              "name": "date",
              "type": "string"
            },
            {
              "internalType": "string[]",
              "name": "products",
              "type": "string[]"
            },
            {
              "components": [
                {
                  "internalType": "string",
                  "name": "from",
                  "type": "string"
                },
                {
                  "internalType": "string",
                  "name": "to",
                  "type": "string"
                },
                {
                  "internalType": "string",
                  "name": "code",
                  "type": "string"
                },
                {
                  "internalType": "string",
                  "name": "name",
                  "type": "string"
                },
                {
                  "internalType": "string",
                  "name": "departureTime",
                  "type": "string"
                },
                {
                  "internalType": "string",
                  "name": "arrivalTime",
                  "type": "string"
                }
              ],
              "internalType": "struct Adipoli.Flight",
              "name": "flight",
              "type": "tuple"
            },
            {
              "components": [
                {
                  "internalType": "bool",
                  "name": "paid",
                  "type": "bool"
                },
                {
                  "internalType": "uint256",
                  "name": "amount",
                  "type": "uint256"
                },
                {
                  "internalType": "string",
                  "name": "txHash",
                  "type": "string"
                }
              ],
              "internalType": "struct Adipoli.Payment",
              "name": "premium",
              "type": "tuple"
            },
            {
              "components": [
                {
                  "internalType": "bool",
                  "name": "paid",
                  "type": "bool"
                },
                {
                  "internalType": "uint256",
                  "name": "amount",
                  "type": "uint256"
                },
                {
                  "internalType": "string",
                  "name": "txHash",
                  "type": "string"
                }
              ],
              "internalType": "struct Adipoli.Payment",
              "name": "payment",
              "type": "tuple"
            }
          ],
          "internalType": "struct Adipoli.Policy",
          "name": "_policy",
          "type": "tuple"
        }
      ],
      "name": "createNewPolicy",
      "outputs": [],
      "stateMutability": "nonpayable",
      "type": "function"
    },
    {
      "inputs": [
        {
          "internalType": "string",
          "name": "date",
          "type": "string"
        }
      ],
      "name": "getUnpaidPolicies",
      "outputs": [
        {
          "components": [
            {
              "internalType": "string",
              "name": "policyId",
              "type": "string"
            },
            {
              "internalType": "string",
              "name": "owner",
              "type": "string"
            },
            {
              "internalType": "string",
              "name": "date",
              "type": "string"
            },
            {
              "internalType": "string[]",
              "name": "products",
              "type": "string[]"
            },
            {
              "components": [
                {
                  "internalType": "string",
                  "name": "from",
                  "type": "string"
                },
                {
                  "internalType": "string",
                  "name": "to",
                  "type": "string"
                },
                {
                  "internalType": "string",
                  "name": "code",
                  "type": "string"
                },
                {
                  "internalType": "string",
                  "name": "name",
                  "type": "string"
                },
                {
                  "internalType": "string",
                  "name": "departureTime",
                  "type": "string"
                },
                {
                  "internalType": "string",
                  "name": "arrivalTime",
                  "type": "string"
                }
              ],
              "internalType": "struct Adipoli.Flight",
              "name": "flight",
              "type": "tuple"
            },
            {
              "components": [
                {
                  "internalType": "bool",
                  "name": "paid",
                  "type": "bool"
                },
                {
                  "internalType": "uint256",
                  "name": "amount",
                  "type": "uint256"
                },
                {
                  "internalType": "string",
                  "name": "txHash",
                  "type": "string"
                }
              ],
              "internalType": "struct Adipoli.Payment",
              "name": "premium",
              "type": "tuple"
            },
            {
              "components": [
                {
                  "internalType": "bool",
                  "name": "paid",
                  "type": "bool"
                },
                {
                  "internalType": "uint256",
                  "name": "amount",
                  "type": "uint256"
                },
                {
                  "internalType": "string",
                  "name": "txHash",
                  "type": "string"
                }
              ],
              "internalType": "struct Adipoli.Payment",
              "name": "payment",
              "type": "tuple"
            }
          ],
          "internalType": "struct Adipoli.Policy[]",
          "name": "",
          "type": "tuple[]"
        }
      ],
      "stateMutability": "view",
      "type": "function",
      "constant": true
    },
    {
      "inputs": [
        {
          "internalType": "string",
          "name": "_policyId",
          "type": "string"
        }
      ],
      "name": "getPolicy",
      "outputs": [
        {
          "components": [
            {
              "internalType": "string",
              "name": "policyId",
              "type": "string"
            },
            {
              "internalType": "string",
              "name": "owner",
              "type": "string"
            },
            {
              "internalType": "string",
              "name": "date",
              "type": "string"
            },
            {
              "internalType": "string[]",
              "name": "products",
              "type": "string[]"
            },
            {
              "components": [
                {
                  "internalType": "string",
                  "name": "from",
                  "type": "string"
                },
                {
                  "internalType": "string",
                  "name": "to",
                  "type": "string"
                },
                {
                  "internalType": "string",
                  "name": "code",
                  "type": "string"
                },
                {
                  "internalType": "string",
                  "name": "name",
                  "type": "string"
                },
                {
                  "internalType": "string",
                  "name": "departureTime",
                  "type": "string"
                },
                {
                  "internalType": "string",
                  "name": "arrivalTime",
                  "type": "string"
                }
              ],
              "internalType": "struct Adipoli.Flight",
              "name": "flight",
              "type": "tuple"
            },
            {
              "components": [
                {
                  "internalType": "bool",
                  "name": "paid",
                  "type": "bool"
                },
                {
                  "internalType": "uint256",
                  "name": "amount",
                  "type": "uint256"
                },
                {
                  "internalType": "string",
                  "name": "txHash",
                  "type": "string"
                }
              ],
              "internalType": "struct Adipoli.Payment",
              "name": "premium",
              "type": "tuple"
            },
            {
              "components": [
                {
                  "internalType": "bool",
                  "name": "paid",
                  "type": "bool"
                },
                {
                  "internalType": "uint256",
                  "name": "amount",
                  "type": "uint256"
                },
                {
                  "internalType": "string",
                  "name": "txHash",
                  "type": "string"
                }
              ],
              "internalType": "struct Adipoli.Payment",
              "name": "payment",
              "type": "tuple"
            }
          ],
          "internalType": "struct Adipoli.Policy",
          "name": "",
          "type": "tuple"
        }
      ],
      "stateMutability": "view",
      "type": "function",
      "constant": true
    },
    {
      "inputs": [
        {
          "internalType": "string",
          "name": "_policyId",
          "type": "string"
        }
      ],
      "name": "getPremium",
      "outputs": [
        {
          "internalType": "uint256",
          "name": "_result",
          "type": "uint256"
        }
      ],
      "stateMutability": "view",
      "type": "function",
      "constant": true
    },
    {
      "inputs": [
        {
          "internalType": "string",
          "name": "_policyId",
          "type": "string"
        },
        {
          "internalType": "string",
          "name": "_from",
          "type": "string"
        },
        {
          "internalType": "string",
          "name": "_flight",
          "type": "string"
        }
      ],
      "name": "calculatePremium",
      "outputs": [],
      "stateMutability": "nonpayable",
      "type": "function"
    },
    {
      "inputs": [
        {
          "internalType": "bytes32",
          "name": "_requestId",
          "type": "bytes32"
        },
        {
          "internalType": "uint256",
          "name": "_score",
          "type": "uint256"
        }
      ],
      "name": "setAirportRating",
      "outputs": [],
      "stateMutability": "nonpayable",
      "type": "function"
    },
    {
      "inputs": [
        {
          "internalType": "bytes32",
          "name": "_requestId",
          "type": "bytes32"
        },
        {
          "internalType": "uint256",
          "name": "_rating",
          "type": "uint256"
        }
      ],
      "name": "setFlightRating",
      "outputs": [],
      "stateMutability": "nonpayable",
      "type": "function"
    },
    {
      "inputs": [
        {
          "internalType": "string",
          "name": "_policyId",
          "type": "string"
        },
        {
          "internalType": "uint256",
          "name": "amount",
          "type": "uint256"
        }
      ],
      "name": "payPolicy",
      "outputs": [],
      "stateMutability": "nonpayable",
      "type": "function"
    }
  ],
  "bytecode": "0x608060405260016004553480156200001657600080fd5b5033600660006101000a81548173ffffffffffffffffffffffffffffffffffffffff021916908373ffffffffffffffffffffffffffffffffffffffff160217905550600660009054906101000a900473ffffffffffffffffffffffffffffffffffffffff1673ffffffffffffffffffffffffffffffffffffffff16600073ffffffffffffffffffffffffffffffffffffffff167f8be0079c531659141344cd1fd0a4f28419497f9722a3daafe3b4186f6b6457e060405160405180910390a3620000e56200017560201b60201c565b733a56ae4a2831c3d3514b5d7af5578e45ebdb7a40600760006101000a81548173ffffffffffffffffffffffffffffffffffffffff021916908373ffffffffffffffffffffffffffffffffffffffff1602179055507f3362376361306434386337613462326461393236383435363636356431316165600881905550662386f26fc10000600981905550620002f2565b6200021b73c89bd4e1632d3a43cb03aaad5262cbe4038bc57173ffffffffffffffffffffffffffffffffffffffff166338cc48316040518163ffffffff1660e01b815260040160206040518083038186803b158015620001d457600080fd5b505afa158015620001e9573d6000803e3d6000fd5b505050506040513d601f19601f820116820180604052506200020f919081019062000278565b6200021d60201b60201c565b565b80600260006101000a81548173ffffffffffffffffffffffffffffffffffffffff021916908373ffffffffffffffffffffffffffffffffffffffff16021790555050565b6000815190506200027281620002d8565b92915050565b6000602082840312156200028b57600080fd5b60006200029b8482850162000261565b91505092915050565b6000620002b182620002b8565b9050919050565b600073ffffffffffffffffffffffffffffffffffffffff82169050919050565b620002e381620002a4565b8114620002ef57600080fd5b50565b6154a380620003026000396000f3fe6080604052600436106100a05760003560e01c80638f32d59b116100645780638f32d59b146101a0578063d2655326146101cb578063dc681d6c146101f4578063f2fde38b1461021d578063f71f1d9e14610246578063fe3168f614610283576100a7565b80633794b04c146100a95780634bd2e4b9146100d257806360dd5f901461010f5780636b3b314f1461014c5780638da5cb5b14610175576100a7565b366100a757005b005b3480156100b557600080fd5b506100d060048036036100cb9190810190614398565b6102ac565b005b3480156100de57600080fd5b506100f960048036036100f491908101906143d4565b610443565b6040516101069190614f92565b60405180910390f35b34801561011b57600080fd5b50610136600480360361013191908101906143d4565b610e51565b60405161014391906150af565b60405180910390f35b34801561015857600080fd5b50610173600480360361016e91908101906144ac565b61191c565b005b34801561018157600080fd5b5061018a611b95565b6040516101979190614eb4565b60405180910390f35b3480156101ac57600080fd5b506101b5611bbf565b6040516101c29190614fb4565b60405180910390f35b3480156101d757600080fd5b506101f260048036036101ed9190810190614415565b611c17565b005b34801561020057600080fd5b5061021b60048036036102169190810190614500565b611e11565b005b34801561022957600080fd5b50610244600480360361023f9190810190614346565b6120f4565b005b34801561025257600080fd5b5061026d600480360361026891908101906143d4565b612147565b60405161027a91906150d1565b60405180910390f35b34801561028f57600080fd5b506102aa60048036036102a59190810190614398565b612240565b005b816005600082815260200190815260200160002060009054906101000a900473ffffffffffffffffffffffffffffffffffffffff1673ffffffffffffffffffffffffffffffffffffffff163373ffffffffffffffffffffffffffffffffffffffff161461034e576040517f08c379a00000000000000000000000000000000000000000000000000000000081526004016103459061508f565b60405180910390fd5b6005600082815260200190815260200160002060006101000a81549073ffffffffffffffffffffffffffffffffffffffff0219169055807f7cc135e0cebb02c3480ae5d74d377283180a2601f8f644edf7987b009316c63a60405160405180910390a26002600d600e60008681526020019081526020016000206040516103d59190614e9d565b908152602001604051809103902060030160016101000a81548160ff0219169083600281111561040157fe5b021790555081600d600e60008681526020019081526020016000206040516104299190614e9d565b908152602001604051809103902060020181905550505050565b606061044d611bbf565b61048c576040517f08c379a00000000000000000000000000000000000000000000000000000000081526004016104839061506f565b60405180910390fd5b6000610497836123d7565b90506060816040519080825280602002602001820160405280156104d557816020015b6104c2613b34565b8152602001906001900390816104ba5790505b509050600080600090505b600a80549050811015610e45576104f5613b83565b600c600a838154811061050457fe5b9060005260206000200160405161051b9190614e9d565b90815260200160405180910390206040518060e0016040529081600082018054600181600116156101000203166002900480601f0160208091040260200160405190810160405280929190818152602001828054600181600116156101000203166002900480156105cd5780601f106105a2576101008083540402835291602001916105cd565b820191906000526020600020905b8154815290600101906020018083116105b057829003601f168201915b50505050508152602001600182018054600181600116156101000203166002900480601f01602080910402602001604051908101604052809291908181526020018280546001816001161561010002031660029004801561066f5780601f106106445761010080835404028352916020019161066f565b820191906000526020600020905b81548152906001019060200180831161065257829003601f168201915b50505050508152602001600282018054600181600116156101000203166002900480601f0160208091040260200160405190810160405280929190818152602001828054600181600116156101000203166002900480156107115780601f106106e657610100808354040283529160200191610711565b820191906000526020600020905b8154815290600101906020018083116106f457829003601f168201915b5050505050815260200160038201805480602002602001604051908101604052809291908181526020016000905b828210156107fb578382906000526020600020018054600181600116156101000203166002900480601f0160208091040260200160405190810160405280929190818152602001828054600181600116156101000203166002900480156107e75780601f106107bc576101008083540402835291602001916107e7565b820191906000526020600020905b8154815290600101906020018083116107ca57829003601f168201915b50505050508152602001906001019061073f565b505050508152602001600482016040518060c0016040529081600082018054600181600116156101000203166002900480601f0160208091040260200160405190810160405280929190818152602001828054600181600116156101000203166002900480156108ac5780601f10610881576101008083540402835291602001916108ac565b820191906000526020600020905b81548152906001019060200180831161088f57829003601f168201915b50505050508152602001600182018054600181600116156101000203166002900480601f01602080910402602001604051908101604052809291908181526020018280546001816001161561010002031660029004801561094e5780601f106109235761010080835404028352916020019161094e565b820191906000526020600020905b81548152906001019060200180831161093157829003601f168201915b50505050508152602001600282018054600181600116156101000203166002900480601f0160208091040260200160405190810160405280929190818152602001828054600181600116156101000203166002900480156109f05780601f106109c5576101008083540402835291602001916109f0565b820191906000526020600020905b8154815290600101906020018083116109d357829003601f168201915b50505050508152602001600382018054600181600116156101000203166002900480601f016020809104026020016040519081016040528092919081815260200182805460018160011615610100020316600290048015610a925780601f10610a6757610100808354040283529160200191610a92565b820191906000526020600020905b815481529060010190602001808311610a7557829003601f168201915b50505050508152602001600482018054600181600116156101000203166002900480601f016020809104026020016040519081016040528092919081815260200182805460018160011615610100020316600290048015610b345780601f10610b0957610100808354040283529160200191610b34565b820191906000526020600020905b815481529060010190602001808311610b1757829003601f168201915b50505050508152602001600582018054600181600116156101000203166002900480601f016020809104026020016040519081016040528092919081815260200182805460018160011615610100020316600290048015610bd65780601f10610bab57610100808354040283529160200191610bd6565b820191906000526020600020905b815481529060010190602001808311610bb957829003601f168201915b5050505050815250508152602001600a82016040518060600160405290816000820160009054906101000a900460ff1615151515815260200160018201548152602001600282018054600181600116156101000203166002900480601f016020809104026020016040519081016040528092919081815260200182805460018160011615610100020316600290048015610cb15780601f10610c8657610100808354040283529160200191610cb1565b820191906000526020600020905b815481529060010190602001808311610c9457829003601f168201915b5050505050815250508152602001600d82016040518060600160405290816000820160009054906101000a900460ff1615151515815260200160018201548152602001600282018054600181600116156101000203166002900480601f016020809104026020016040519081016040528092919081815260200182805460018160011615610100020316600290048015610d8c5780601f10610d6157610100808354040283529160200191610d8c565b820191906000526020600020905b815481529060010190602001808311610d6f57829003601f168201915b505050505081525050815250509050600015158160c00151600001511515148015610dfd575060001515610df982602001516040518060400160405280600381526020017f3078300000000000000000000000000000000000000000000000000000000000815250612d37565b1515145b8015610e135750610e12878260400151612d37565b5b15610e395780848481518110610e2557fe5b602002602001018190525082806001019350505b508060010190506104e0565b50819350505050919050565b610e59613b83565b610e61611bbf565b610ea0576040517f08c379a0000000000000000000000000000000000000000000000000000000008152600401610e979061506f565b60405180910390fd5b60011515600b83604051610eb49190614e28565b908152602001604051809103902060009054906101000a900460ff161515141561177957610ee0613b83565b600c83604051610ef09190614e28565b90815260200160405180910390206040518060e0016040529081600082018054600181600116156101000203166002900480601f016020809104026020016040519081016040528092919081815260200182805460018160011615610100020316600290048015610fa25780601f10610f7757610100808354040283529160200191610fa2565b820191906000526020600020905b815481529060010190602001808311610f8557829003601f168201915b50505050508152602001600182018054600181600116156101000203166002900480601f0160208091040260200160405190810160405280929190818152602001828054600181600116156101000203166002900480156110445780601f1061101957610100808354040283529160200191611044565b820191906000526020600020905b81548152906001019060200180831161102757829003601f168201915b50505050508152602001600282018054600181600116156101000203166002900480601f0160208091040260200160405190810160405280929190818152602001828054600181600116156101000203166002900480156110e65780601f106110bb576101008083540402835291602001916110e6565b820191906000526020600020905b8154815290600101906020018083116110c957829003601f168201915b5050505050815260200160038201805480602002602001604051908101604052809291908181526020016000905b828210156111d0578382906000526020600020018054600181600116156101000203166002900480601f0160208091040260200160405190810160405280929190818152602001828054600181600116156101000203166002900480156111bc5780601f10611191576101008083540402835291602001916111bc565b820191906000526020600020905b81548152906001019060200180831161119f57829003601f168201915b505050505081526020019060010190611114565b505050508152602001600482016040518060c0016040529081600082018054600181600116156101000203166002900480601f0160208091040260200160405190810160405280929190818152602001828054600181600116156101000203166002900480156112815780601f1061125657610100808354040283529160200191611281565b820191906000526020600020905b81548152906001019060200180831161126457829003601f168201915b50505050508152602001600182018054600181600116156101000203166002900480601f0160208091040260200160405190810160405280929190818152602001828054600181600116156101000203166002900480156113235780601f106112f857610100808354040283529160200191611323565b820191906000526020600020905b81548152906001019060200180831161130657829003601f168201915b50505050508152602001600282018054600181600116156101000203166002900480601f0160208091040260200160405190810160405280929190818152602001828054600181600116156101000203166002900480156113c55780601f1061139a576101008083540402835291602001916113c5565b820191906000526020600020905b8154815290600101906020018083116113a857829003601f168201915b50505050508152602001600382018054600181600116156101000203166002900480601f0160208091040260200160405190810160405280929190818152602001828054600181600116156101000203166002900480156114675780601f1061143c57610100808354040283529160200191611467565b820191906000526020600020905b81548152906001019060200180831161144a57829003601f168201915b50505050508152602001600482018054600181600116156101000203166002900480601f0160208091040260200160405190810160405280929190818152602001828054600181600116156101000203166002900480156115095780601f106114de57610100808354040283529160200191611509565b820191906000526020600020905b8154815290600101906020018083116114ec57829003601f168201915b50505050508152602001600582018054600181600116156101000203166002900480601f0160208091040260200160405190810160405280929190818152602001828054600181600116156101000203166002900480156115ab5780601f10611580576101008083540402835291602001916115ab565b820191906000526020600020905b81548152906001019060200180831161158e57829003601f168201915b5050505050815250508152602001600a82016040518060600160405290816000820160009054906101000a900460ff1615151515815260200160018201548152602001600282018054600181600116156101000203166002900480601f0160208091040260200160405190810160405280929190818152602001828054600181600116156101000203166002900480156116865780601f1061165b57610100808354040283529160200191611686565b820191906000526020600020905b81548152906001019060200180831161166957829003601f168201915b5050505050815250508152602001600d82016040518060600160405290816000820160009054906101000a900460ff1615151515815260200160018201548152602001600282018054600181600116156101000203166002900480601f0160208091040260200160405190810160405280929190818152602001828054600181600116156101000203166002900480156117615780601f1061173657610100808354040283529160200191611761565b820191906000526020600020905b81548152906001019060200180831161174457829003601f168201915b50505050508152505081525050905080915050611917565b6060611783613b83565b6040518060e001604052806040518060400160405280600181526020017f300000000000000000000000000000000000000000000000000000000000000081525081526020016040518060400160405280600381526020017f307830000000000000000000000000000000000000000000000000000000000081525081526020016040518060200160405280600081525081526020018381526020016040518060c0016040528060405180602001604052806000815250815260200160405180602001604052806000815250815260200160405180602001604052806000815250815260200160405180602001604052806000815250815260200160405180602001604052806000815250815260200160405180602001604052806000815250815250815260200160405180606001604052806000151581526020016000815260200160405180602001604052806000815250815250815260200160405180606001604052806000151581526020016000815260200160405180602001604052806000815250815250815250905080925050505b919050565b611924611bbf565b611963576040517f08c379a000000000000000000000000000000000000000000000000000000000815260040161195a9061506f565b60405180910390fd5b60011515600b836040516119779190614e28565b908152602001604051809103902060009054906101000a900460ff1615151461199f57600080fd5b60001515611a9b600c846040516119b69190614e28565b90815260200160405180910390206001018054600181600116156101000203166002900480601f016020809104026020016040519081016040528092919081815260200182805460018160011615610100020316600290048015611a5b5780601f10611a3057610100808354040283529160200191611a5b565b820191906000526020600020905b815481529060010190602001808311611a3e57829003601f168201915b50505050506040518060400160405280600381526020017f3078300000000000000000000000000000000000000000000000000000000000815250612d37565b151514611aa757600080fd5b60011515600c83604051611abb9190614e28565b9081526020016040518091039020600a0160000160009054906101000a900460ff16151514611ae957600080fd5b60001515600c83604051611afd9190614e28565b9081526020016040518091039020600d0160000160009054906101000a900460ff16151514611b2b57600080fd5b6001600c83604051611b3d9190614e28565b9081526020016040518091039020600d0160000160006101000a81548160ff02191690831515021790555080600c83604051611b799190614e28565b9081526020016040518091039020600d01600101819055505050565b6000600660009054906101000a900473ffffffffffffffffffffffffffffffffffffffff16905090565b6000600660009054906101000a900473ffffffffffffffffffffffffffffffffffffffff1673ffffffffffffffffffffffffffffffffffffffff163373ffffffffffffffffffffffffffffffffffffffff1614905090565b611c1f611bbf565b611c5e576040517f08c379a0000000000000000000000000000000000000000000000000000000008152600401611c559061506f565b60405180910390fd5b60001515600d84604051611c729190614e28565b908152602001604051809103902060000160009054906101000a900460ff1615151415611d5a576000600d84604051611cab9190614e28565b908152602001604051809103902060030160006101000a81548160ff02191690836002811115611cd757fe5b02179055506000600d84604051611cee9190614e28565b908152602001604051809103902060030160016101000a81548160ff02191690836002811115611d1a57fe5b02179055506001600d84604051611d319190614e28565b908152602001604051809103902060000160006101000a81548160ff0219169083151502179055505b60006002811115611d6757fe5b600d84604051611d779190614e28565b908152602001604051809103902060030160009054906101000a900460ff166002811115611da157fe5b1415611db357611db18383612d90565b505b60006002811115611dc057fe5b600d84604051611dd09190614e28565b908152602001604051809103902060030160019054906101000a900460ff166002811115611dfa57fe5b1415611e0c57611e0a8382612e8b565b505b505050565b611e19611bbf565b611e58576040517f08c379a0000000000000000000000000000000000000000000000000000000008152600401611e4f9061506f565b60405180910390fd5b6000611e678260000151612f86565b90508160a0015160200151811115611e7e57600080fd5b81600c8360000151604051611e939190614e11565b90815260200160405180910390206000820151816000019080519060200190611ebd929190613bd2565b506020820151816001019080519060200190611eda929190613bd2565b506040820151816002019080519060200190611ef7929190613bd2565b506060820151816003019080519060200190611f14929190613c52565b506080820151816004016000820151816000019080519060200190611f3a929190613bd2565b506020820151816001019080519060200190611f57929190613bd2565b506040820151816002019080519060200190611f74929190613bd2565b506060820151816003019080519060200190611f91929190613bd2565b506080820151816004019080519060200190611fae929190613bd2565b5060a0820151816005019080519060200190611fcb929190613bd2565b50505060a082015181600a0160008201518160000160006101000a81548160ff02191690831515021790555060208201518160010155604082015181600201908051906020019061201d929190613bd2565b50505060c082015181600d0160008201518160000160006101000a81548160ff02191690831515021790555060208201518160010155604082015181600201908051906020019061206f929190613bd2565b5050509050506001600b836000015160405161208b9190614e11565b908152602001604051809103902060006101000a81548160ff021916908315150217905550600a82600001519080600181540180825580915050600190039060005260206000200160009091909190915090805190602001906120ef929190613cb2565b505050565b6120fc611bbf565b61213b576040517f08c379a00000000000000000000000000000000000000000000000000000000081526004016121329061506f565b60405180910390fd5b61214481613070565b50565b6000612151611bbf565b612190576040517f08c379a00000000000000000000000000000000000000000000000000000000081526004016121879061506f565b60405180910390fd5b600090506002808111156121a057fe5b600d836040516121b09190614e28565b908152602001604051809103902060030160009054906101000a900460ff1660028111156121da57fe5b14801561222a57506002808111156121ee57fe5b600d836040516121fe9190614e28565b908152602001604051809103902060030160019054906101000a900460ff16600281111561222857fe5b145b1561223b5761223882612f86565b90505b919050565b816005600082815260200190815260200160002060009054906101000a900473ffffffffffffffffffffffffffffffffffffffff1673ffffffffffffffffffffffffffffffffffffffff163373ffffffffffffffffffffffffffffffffffffffff16146122e2576040517f08c379a00000000000000000000000000000000000000000000000000000000081526004016122d99061508f565b60405180910390fd5b6005600082815260200190815260200160002060006101000a81549073ffffffffffffffffffffffffffffffffffffffff0219169055807f7cc135e0cebb02c3480ae5d74d377283180a2601f8f644edf7987b009316c63a60405160405180910390a26002600d600e60008681526020019081526020016000206040516123699190614e9d565b908152602001604051809103902060030160006101000a81548160ff0219169083600281111561239557fe5b021790555081600d600e60008681526020019081526020016000206040516123bd9190614e9d565b908152602001604051809103902060010181905550505050565b60008060008090505b600a80549050811015612d2d576123f5613b83565b600c600a838154811061240457fe5b9060005260206000200160405161241b9190614e9d565b90815260200160405180910390206040518060e0016040529081600082018054600181600116156101000203166002900480601f0160208091040260200160405190810160405280929190818152602001828054600181600116156101000203166002900480156124cd5780601f106124a2576101008083540402835291602001916124cd565b820191906000526020600020905b8154815290600101906020018083116124b057829003601f168201915b50505050508152602001600182018054600181600116156101000203166002900480601f01602080910402602001604051908101604052809291908181526020018280546001816001161561010002031660029004801561256f5780601f106125445761010080835404028352916020019161256f565b820191906000526020600020905b81548152906001019060200180831161255257829003601f168201915b50505050508152602001600282018054600181600116156101000203166002900480601f0160208091040260200160405190810160405280929190818152602001828054600181600116156101000203166002900480156126115780601f106125e657610100808354040283529160200191612611565b820191906000526020600020905b8154815290600101906020018083116125f457829003601f168201915b5050505050815260200160038201805480602002602001604051908101604052809291908181526020016000905b828210156126fb578382906000526020600020018054600181600116156101000203166002900480601f0160208091040260200160405190810160405280929190818152602001828054600181600116156101000203166002900480156126e75780601f106126bc576101008083540402835291602001916126e7565b820191906000526020600020905b8154815290600101906020018083116126ca57829003601f168201915b50505050508152602001906001019061263f565b505050508152602001600482016040518060c0016040529081600082018054600181600116156101000203166002900480601f0160208091040260200160405190810160405280929190818152602001828054600181600116156101000203166002900480156127ac5780601f10612781576101008083540402835291602001916127ac565b820191906000526020600020905b81548152906001019060200180831161278f57829003601f168201915b50505050508152602001600182018054600181600116156101000203166002900480601f01602080910402602001604051908101604052809291908181526020018280546001816001161561010002031660029004801561284e5780601f106128235761010080835404028352916020019161284e565b820191906000526020600020905b81548152906001019060200180831161283157829003601f168201915b50505050508152602001600282018054600181600116156101000203166002900480601f0160208091040260200160405190810160405280929190818152602001828054600181600116156101000203166002900480156128f05780601f106128c5576101008083540402835291602001916128f0565b820191906000526020600020905b8154815290600101906020018083116128d357829003601f168201915b50505050508152602001600382018054600181600116156101000203166002900480601f0160208091040260200160405190810160405280929190818152602001828054600181600116156101000203166002900480156129925780601f1061296757610100808354040283529160200191612992565b820191906000526020600020905b81548152906001019060200180831161297557829003601f168201915b50505050508152602001600482018054600181600116156101000203166002900480601f016020809104026020016040519081016040528092919081815260200182805460018160011615610100020316600290048015612a345780601f10612a0957610100808354040283529160200191612a34565b820191906000526020600020905b815481529060010190602001808311612a1757829003601f168201915b50505050508152602001600582018054600181600116156101000203166002900480601f016020809104026020016040519081016040528092919081815260200182805460018160011615610100020316600290048015612ad65780601f10612aab57610100808354040283529160200191612ad6565b820191906000526020600020905b815481529060010190602001808311612ab957829003601f168201915b5050505050815250508152602001600a82016040518060600160405290816000820160009054906101000a900460ff1615151515815260200160018201548152602001600282018054600181600116156101000203166002900480601f016020809104026020016040519081016040528092919081815260200182805460018160011615610100020316600290048015612bb15780601f10612b8657610100808354040283529160200191612bb1565b820191906000526020600020905b815481529060010190602001808311612b9457829003601f168201915b5050505050815250508152602001600d82016040518060600160405290816000820160009054906101000a900460ff1615151515815260200160018201548152602001600282018054600181600116156101000203166002900480601f016020809104026020016040519081016040528092919081815260200182805460018160011615610100020316600290048015612c8c5780601f10612c6157610100808354040283529160200191612c8c565b820191906000526020600020905b815481529060010190602001808311612c6f57829003601f168201915b505050505081525050815250509050600015158160c00151600001511515148015612cfd575060001515612cf982602001516040518060400160405280600381526020017f3078300000000000000000000000000000000000000000000000000000000000815250612d37565b1515145b8015612d135750612d12858260400151612d37565b5b15612d215782806001019350505b508060010190506123e0565b5080915050919050565b600081604051602001612d4a9190614e28565b6040516020818303038152906040528051906020012083604051602001612d719190614e28565b6040516020818303038152906040528051906020012014905092915050565b600060606040518060600160405280602c8152602001615417602c913983604051602001612dbf929190614e6e565b6040516020818303038152906040529050612e17816040518060400160405280600581526020017f73636f726500000000000000000000000000000000000000000000000000000081525063fe3168f660e01b6131a0565b915083600e60008481526020019081526020016000209080519060200190612e40929190613cb2565b506001600d85604051612e539190614e28565b908152602001604051809103902060030160006101000a81548160ff02191690836002811115612e7f57fe5b02179055505092915050565b600060606040518060600160405280602b8152602001615443602b913983604051602001612eba929190614e3f565b6040516020818303038152906040529050612f12816040518060400160405280600581526020017f73636f7265000000000000000000000000000000000000000000000000000000815250633794b04c60e01b6131a0565b915083600e60008481526020019081526020016000209080519060200190612f3b929190613cb2565b506001600d85604051612f4e9190614e28565b908152602001604051809103902060030160016101000a81548160ff02191690836002811115612f7a57fe5b02179055505092915050565b6000612f90611bbf565b612fcf576040517f08c379a0000000000000000000000000000000000000000000000000000000008152600401612fc69061506f565b60405180910390fd5b60006130066007600d85604051612fe69190614e28565b90815260200160405180910390206002015461328690919063ffffffff16565b9050600061303f6003600d8660405161301f9190614e28565b90815260200160405180910390206001015461328690919063ffffffff16565b9050613067600a61305983856132f690919063ffffffff16565b61334b90919063ffffffff16565b92505050919050565b600073ffffffffffffffffffffffffffffffffffffffff168173ffffffffffffffffffffffffffffffffffffffff1614156130e0576040517f08c379a00000000000000000000000000000000000000000000000000000000081526004016130d790614fcf565b60405180910390fd5b8073ffffffffffffffffffffffffffffffffffffffff16600660009054906101000a900473ffffffffffffffffffffffffffffffffffffffff1673ffffffffffffffffffffffffffffffffffffffff167f8be0079c531659141344cd1fd0a4f28419497f9722a3daafe3b4186f6b6457e060405160405180910390a380600660006101000a81548173ffffffffffffffffffffffffffffffffffffffff021916908373ffffffffffffffffffffffffffffffffffffffff16021790555050565b60006131aa613d32565b6131b760085430856133a7565b90506132036040518060400160405280600381526020017f676574000000000000000000000000000000000000000000000000000000000081525086836133d89092919063ffffffff16565b61324d6040518060400160405280600481526020017f706174680000000000000000000000000000000000000000000000000000000081525085836133d89092919063ffffffff16565b61327c600760009054906101000a900473ffffffffffffffffffffffffffffffffffffffff168260095461340b565b9150509392505050565b60008083141561329957600090506132f0565b60008284029050828482816132aa57fe5b04146132eb576040517f08c379a00000000000000000000000000000000000000000000000000000000081526004016132e29061504f565b60405180910390fd5b809150505b92915050565b600080828401905083811015613341576040517f08c379a000000000000000000000000000000000000000000000000000000000815260040161333890614fef565b60405180910390fd5b8091505092915050565b600080821161338f576040517f08c379a00000000000000000000000000000000000000000000000000000000081526004016133869061502f565b60405180910390fd5b600082848161339a57fe5b0490508091505092915050565b6133af613d32565b6133b7613d32565b6133ce858585846135d8909392919063ffffffff16565b9150509392505050565b6133ef82846080015161368890919063ffffffff16565b61340681846080015161368890919063ffffffff16565b505050565b600030600454604051602001613422929190614de5565b604051602081830303815290604052805190602001209050600454836060018181525050836005600083815260200190815260200160002060006101000a81548173ffffffffffffffffffffffffffffffffffffffff021916908373ffffffffffffffffffffffffffffffffffffffff160217905550807fb5e6e01e79f91267dc17b4e6314d5d4d03593d2ceee0fbb452b750bd70ea5af960405160405180910390a2600260009054906101000a900473ffffffffffffffffffffffffffffffffffffffff1673ffffffffffffffffffffffffffffffffffffffff16634000aea0858461350e876136ad565b6040518463ffffffff1660e01b815260040161352c93929190614f54565b602060405180830381600087803b15801561354657600080fd5b505af115801561355a573d6000803e3d6000fd5b505050506040513d601f19601f8201168201806040525061357e919081019061436f565b6135bd576040517f08c379a00000000000000000000000000000000000000000000000000000000081526004016135b49061500f565b60405180910390fd5b60016004600082825401925050819055508090509392505050565b6135e0613d32565b6135f0856080015161010061378f565b508385600001818152505082856020019073ffffffffffffffffffffffffffffffffffffffff16908173ffffffffffffffffffffffffffffffffffffffff16815250508185604001907bffffffffffffffffffffffffffffffffffffffffffffffffffffffff191690817bffffffffffffffffffffffffffffffffffffffffffffffffffffffff191681525050849050949350505050565b61369582600383516137e3565b6136a8818361392890919063ffffffff16565b505050565b6060600360009054906101000a900473ffffffffffffffffffffffffffffffffffffffff1673ffffffffffffffffffffffffffffffffffffffff166340429946905060e01b6000808460000151856020015186604001518760600151600189608001516000015160405160240161372b989796959493929190614ecf565b604051602081830303815290604052907bffffffffffffffffffffffffffffffffffffffffffffffffffffffff19166020820180517bffffffffffffffffffffffffffffffffffffffffffffffffffffffff83818316178352505050509050919050565b613797613d9f565b6000602083816137a357fe5b06146137bc57602082816137b357fe5b06602003820191505b81836020018181525050604051808452600081528281016020016040525082905092915050565b601781116138105761380a8160058460ff16901b60ff16178461394a90919063ffffffff16565b50613923565b60ff811161385257613835601860058460ff16901b178461394a90919063ffffffff16565b5061384c8160018561396a9092919063ffffffff16565b50613922565b61ffff811161389557613878601960058460ff16901b178461394a90919063ffffffff16565b5061388f8160028561396a9092919063ffffffff16565b50613921565b63ffffffff81116138da576138bd601a60058460ff16901b178461394a90919063ffffffff16565b506138d48160048561396a9092919063ffffffff16565b50613920565b67ffffffffffffffff811161391f57613906601b60058460ff16901b178461394a90919063ffffffff16565b5061391d8160088561396a9092919063ffffffff16565b505b5b5b5b5b505050565b613930613d9f565b6139428384600001515184855161398c565b905092915050565b613952613d9f565b6139628384600001515184613a45565b905092915050565b613972613d9f565b613983848560000151518585613a93565b90509392505050565b613994613d9f565b82518211156139a257600080fd5b846020015182850111156139cd576139cc8560026139c68860200151888701613af4565b02613b10565b5b6000808651805187602083010193508088870111156139ec5787860182525b60208701925050505b60208410613a1857805182526020820191506020810190506020840393506139f5565b60006001856020036101000a03905080198251168184511681811785525050879350505050949350505050565b613a4d613d9f565b83602001518310613a6a57613a69846002866020015102613b10565b5b8351805160208583010184815381861415613a86576001820183525b5050508390509392505050565b613a9b613d9f565b84602001518483011115613ab957613ab885600286850102613b10565b5b60006001836101000a0390508551838682010185831982511617815281518588011115613ae65784870182525b505085915050949350505050565b600081831115613b0657829050613b0a565b8190505b92915050565b606082600001519050613b23838361378f565b50613b2e8382613928565b50505050565b6040518060e0016040528060608152602001606081526020016060815260200160608152602001613b63613db9565b8152602001613b70613def565b8152602001613b7d613def565b81525090565b6040518060e0016040528060608152602001606081526020016060815260200160608152602001613bb2613db9565b8152602001613bbf613def565b8152602001613bcc613def565b81525090565b828054600181600116156101000203166002900490600052602060002090601f016020900481019282601f10613c1357805160ff1916838001178555613c41565b82800160010185558215613c41579182015b82811115613c40578251825591602001919060010190613c25565b5b509050613c4e9190613e12565b5090565b828054828255906000526020600020908101928215613ca1579160200282015b82811115613ca0578251829080519060200190613c90929190613bd2565b5091602001919060010190613c72565b5b509050613cae9190613e37565b5090565b828054600181600116156101000203166002900490600052602060002090601f016020900481019282601f10613cf357805160ff1916838001178555613d21565b82800160010185558215613d21579182015b82811115613d20578251825591602001919060010190613d05565b5b509050613d2e9190613e12565b5090565b6040518060a0016040528060008019168152602001600073ffffffffffffffffffffffffffffffffffffffff16815260200160007bffffffffffffffffffffffffffffffffffffffffffffffffffffffff1916815260200160008152602001613d99613e63565b81525090565b604051806040016040528060608152602001600081525090565b6040518060c001604052806060815260200160608152602001606081526020016060815260200160608152602001606081525090565b604051806060016040528060001515815260200160008152602001606081525090565b613e3491905b80821115613e30576000816000905550600101613e18565b5090565b90565b613e6091905b80821115613e5c5760008181613e539190613e7d565b50600101613e3d565b5090565b90565b604051806040016040528060608152602001600081525090565b50805460018160011615610100020316600290046000825580601f10613ea35750613ec2565b601f016020900490600052602060002090810190613ec19190613e12565b5b50565b600081359050613ed4816153ba565b92915050565b600082601f830112613eeb57600080fd5b8135613efe613ef982615119565b6150ec565b9150818183526020840193506020810190508360005b83811015613f445781358601613f2a8882613f8d565b845260208401935060208301925050600181019050613f14565b5050505092915050565b600081359050613f5d816153d1565b92915050565b600081519050613f72816153d1565b92915050565b600081359050613f87816153e8565b92915050565b600082601f830112613f9e57600080fd5b8135613fb1613fac82615141565b6150ec565b91508082526020830160208301858383011115613fcd57600080fd5b613fd883828461532c565b50505092915050565b600082601f830112613ff257600080fd5b81356140056140008261516d565b6150ec565b9150808252602083016020830185838301111561402157600080fd5b61402c83828461532c565b50505092915050565b600060c0828403121561404757600080fd5b61405160c06150ec565b9050600082013567ffffffffffffffff81111561406d57600080fd5b61407984828501613f8d565b600083015250602082013567ffffffffffffffff81111561409957600080fd5b6140a584828501613f8d565b602083015250604082013567ffffffffffffffff8111156140c557600080fd5b6140d184828501613f8d565b604083015250606082013567ffffffffffffffff8111156140f157600080fd5b6140fd84828501613f8d565b606083015250608082013567ffffffffffffffff81111561411d57600080fd5b61412984828501613f8d565b60808301525060a082013567ffffffffffffffff81111561414957600080fd5b61415584828501613f8d565b60a08301525092915050565b60006060828403121561417357600080fd5b61417d60606150ec565b9050600061418d84828501613f4e565b60008301525060206141a184828501614331565b602083015250604082013567ffffffffffffffff8111156141c157600080fd5b6141cd84828501613f8d565b60408301525092915050565b600060e082840312156141eb57600080fd5b6141f560e06150ec565b9050600082013567ffffffffffffffff81111561421157600080fd5b61421d84828501613f8d565b600083015250602082013567ffffffffffffffff81111561423d57600080fd5b61424984828501613f8d565b602083015250604082013567ffffffffffffffff81111561426957600080fd5b61427584828501613f8d565b604083015250606082013567ffffffffffffffff81111561429557600080fd5b6142a184828501613eda565b606083015250608082013567ffffffffffffffff8111156142c157600080fd5b6142cd84828501614035565b60808301525060a082013567ffffffffffffffff8111156142ed57600080fd5b6142f984828501614161565b60a08301525060c082013567ffffffffffffffff81111561431957600080fd5b61432584828501614161565b60c08301525092915050565b600081359050614340816153ff565b92915050565b60006020828403121561435857600080fd5b600061436684828501613ec5565b91505092915050565b60006020828403121561438157600080fd5b600061438f84828501613f63565b91505092915050565b600080604083850312156143ab57600080fd5b60006143b985828601613f78565b92505060206143ca85828601614331565b9150509250929050565b6000602082840312156143e657600080fd5b600082013567ffffffffffffffff81111561440057600080fd5b61440c84828501613fe1565b91505092915050565b60008060006060848603121561442a57600080fd5b600084013567ffffffffffffffff81111561444457600080fd5b61445086828701613fe1565b935050602084013567ffffffffffffffff81111561446d57600080fd5b61447986828701613fe1565b925050604084013567ffffffffffffffff81111561449657600080fd5b6144a286828701613fe1565b9150509250925092565b600080604083850312156144bf57600080fd5b600083013567ffffffffffffffff8111156144d957600080fd5b6144e585828601613fe1565b92505060206144f685828601614331565b9150509250929050565b60006020828403121561451257600080fd5b600082013567ffffffffffffffff81111561452c57600080fd5b614538848285016141d9565b91505092915050565b600061454d8383614758565b905092915050565b60006145618383614cea565b905092915050565b6145728161528a565b82525050565b6000614583826151ce565b61458d818561522a565b93508360208202850161459f85615199565b8060005b858110156145db57848403895281516145bc8582614541565b94506145c783615210565b925060208a019950506001810190506145a3565b50829750879550505050505092915050565b60006145f8826151d9565b614602818561523b565b935083602082028501614614856151a9565b8060005b8581101561465057848403895281516146318582614555565b945061463c8361521d565b925060208a01995050600181019050614618565b50829750879550505050505092915050565b61466b8161529c565b82525050565b61467a8161529c565b82525050565b614689816152a8565b82525050565b614698816152b2565b82525050565b60006146a9826151ef565b6146b3818561524c565b93506146c381856020860161533b565b6146cc8161539c565b840191505092915050565b60006146e2826151e4565b6146ec818561524c565b93506146fc81856020860161533b565b6147058161539c565b840191505092915050565b61472161471c82615308565b61536e565b82525050565b600061473282615205565b61473c818561527f565b935061474c81856020860161533b565b80840191505092915050565b6000614763826151fa565b61476d818561525d565b935061477d81856020860161533b565b6147868161539c565b840191505092915050565b600061479c826151fa565b6147a6818561527f565b93506147b681856020860161533b565b80840191505092915050565b6000815460018116600081146147df576001811461480457614848565b607f60028304166147f0818761527f565b955060ff1983168652808601935050614848565b60028204614812818761527f565b955061481d856151b9565b60005b8281101561483f57815481890152600182019150602081019050614820565b82880195505050505b505092915050565b600061485d60268361526e565b91507f4f776e61626c653a206e6577206f776e657220697320746865207a65726f206160008301527f64647265737300000000000000000000000000000000000000000000000000006020830152604082019050919050565b60006148c3601b8361526e565b91507f536166654d6174683a206164646974696f6e206f766572666c6f7700000000006000830152602082019050919050565b600061490360238361526e565b91507f756e61626c6520746f207472616e73666572416e6443616c6c20746f206f726160008301527f636c6500000000000000000000000000000000000000000000000000000000006020830152604082019050919050565b600061496960088361527f565b91507f3f666c696768743d0000000000000000000000000000000000000000000000006000830152600882019050919050565b60006149a9601a8361526e565b91507f536166654d6174683a206469766973696f6e206279207a65726f0000000000006000830152602082019050919050565b60006149e960098361527f565b91507f3f616972706f72743d00000000000000000000000000000000000000000000006000830152600982019050919050565b6000614a2960218361526e565b91507f536166654d6174683a206d756c7469706c69636174696f6e206f766572666c6f60008301527f77000000000000000000000000000000000000000000000000000000000000006020830152604082019050919050565b6000614a8f60208361526e565b91507f4f776e61626c653a2063616c6c6572206973206e6f7420746865206f776e65726000830152602082019050919050565b6000614acf60288361526e565b91507f536f75726365206d75737420626520746865206f7261636c65206f662074686560008301527f20726571756573740000000000000000000000000000000000000000000000006020830152604082019050919050565b600060c0830160008301518482036000860152614b458282614758565b91505060208301518482036020860152614b5f8282614758565b91505060408301518482036040860152614b798282614758565b91505060608301518482036060860152614b938282614758565b91505060808301518482036080860152614bad8282614758565b91505060a083015184820360a0860152614bc78282614758565b9150508091505092915050565b6000606083016000830151614bec6000860182614662565b506020830151614bff6020860182614db0565b5060408301518482036040860152614c178282614758565b9150508091505092915050565b600060e0830160008301518482036000860152614c418282614758565b91505060208301518482036020860152614c5b8282614758565b91505060408301518482036040860152614c758282614758565b91505060608301518482036060860152614c8f8282614578565b91505060808301518482036080860152614ca98282614b28565b91505060a083015184820360a0860152614cc38282614bd4565b91505060c083015184820360c0860152614cdd8282614bd4565b9150508091505092915050565b600060e0830160008301518482036000860152614d078282614758565b91505060208301518482036020860152614d218282614758565b91505060408301518482036040860152614d3b8282614758565b91505060608301518482036060860152614d558282614578565b91505060808301518482036080860152614d6f8282614b28565b91505060a083015184820360a0860152614d898282614bd4565b91505060c083015184820360c0860152614da38282614bd4565b9150508091505092915050565b614db9816152fe565b82525050565b614dc8816152fe565b82525050565b614ddf614dda826152fe565b615392565b82525050565b6000614df18285614710565b601482019150614e018284614dce565b6020820191508190509392505050565b6000614e1d8284614791565b915081905092915050565b6000614e348284614727565b915081905092915050565b6000614e4b8285614791565b9150614e568261495c565b9150614e628284614727565b91508190509392505050565b6000614e7a8285614791565b9150614e85826149dc565b9150614e918284614727565b91508190509392505050565b6000614ea982846147c2565b915081905092915050565b6000602082019050614ec96000830184614569565b92915050565b600061010082019050614ee5600083018b614569565b614ef2602083018a614dbf565b614eff6040830189614680565b614f0c6060830188614569565b614f19608083018761468f565b614f2660a0830186614dbf565b614f3360c0830185614dbf565b81810360e0830152614f4581846146d7565b90509998505050505050505050565b6000606082019050614f696000830186614569565b614f766020830185614dbf565b8181036040830152614f88818461469e565b9050949350505050565b60006020820190508181036000830152614fac81846145ed565b905092915050565b6000602082019050614fc96000830184614671565b92915050565b60006020820190508181036000830152614fe881614850565b9050919050565b60006020820190508181036000830152615008816148b6565b9050919050565b60006020820190508181036000830152615028816148f6565b9050919050565b600060208201905081810360008301526150488161499c565b9050919050565b6000602082019050818103600083015261506881614a1c565b9050919050565b6000602082019050818103600083015261508881614a82565b9050919050565b600060208201905081810360008301526150a881614ac2565b9050919050565b600060208201905081810360008301526150c98184614c24565b905092915050565b60006020820190506150e66000830184614dbf565b92915050565b6000604051905081810181811067ffffffffffffffff8211171561510f57600080fd5b8060405250919050565b600067ffffffffffffffff82111561513057600080fd5b602082029050602081019050919050565b600067ffffffffffffffff82111561515857600080fd5b601f19601f8301169050602081019050919050565b600067ffffffffffffffff82111561518457600080fd5b601f19601f8301169050602081019050919050565b6000819050602082019050919050565b6000819050602082019050919050565b60008190508160005260206000209050919050565b600081519050919050565b600081519050919050565b600081519050919050565b600081519050919050565b600081519050919050565b600081519050919050565b6000602082019050919050565b6000602082019050919050565b600082825260208201905092915050565b600082825260208201905092915050565b600082825260208201905092915050565b600082825260208201905092915050565b600082825260208201905092915050565b600081905092915050565b6000615295826152de565b9050919050565b60008115159050919050565b6000819050919050565b60007fffffffff0000000000000000000000000000000000000000000000000000000082169050919050565b600073ffffffffffffffffffffffffffffffffffffffff82169050919050565b6000819050919050565b60006153138261531a565b9050919050565b6000615325826152de565b9050919050565b82818337600083830152505050565b60005b8381101561535957808201518184015260208101905061533e565b83811115615368576000848401525b50505050565b600061537982615380565b9050919050565b600061538b826153ad565b9050919050565b6000819050919050565b6000601f19601f8301169050919050565b60008160601b9050919050565b6153c38161528a565b81146153ce57600080fd5b50565b6153da8161529c565b81146153e557600080fd5b50565b6153f1816152a8565b81146153fc57600080fd5b50565b615408816152fe565b811461541357600080fd5b5056fe68747470733a2f2f616469706f6c692e76657263656c2e6170702f6170692f616972706f72742f64656c617968747470733a2f2f616469706f6c692e76657263656c2e6170702f6170692f666c696768742f7374617473a2646970667358221220b8775888b4212ca427073d75ee34d0e5c080a7a47a54833723fa58ed0df007a364736f6c63430006000033",
  "source": "// SPDX-License-Identifier: MIT\npragma solidity ^0.6.0;\npragma experimental ABIEncoderV2;\n\nimport \"@chainlink/contracts/src/v0.6/ChainlinkClient.sol\";\nimport \"@chainlink/contracts/src/v0.6/vendor/Ownable.sol\";\nimport \"@chainlink/contracts/src/v0.6/vendor/SafeMathChainlink.sol\";\n\n/**\n * @title Adipoli is a contract which requests data from the Chainlink network\n * @dev This contract is designed to work on multiple networks, including\n * local test networks\n */\ncontract Adipoli is ChainlinkClient, Ownable {\n  using SafeMathChainlink for uint256;\n  using Chainlink for Chainlink.Request;\n\n  address private oracle;\n  bytes32 private jobId;\n  uint256 private fee;\n\n  string private constant GET_AIRPORT_DELAY_URL = \"https://adipoli.vercel.app/api/airport/delay\";\n  string private constant GET_FLIGHT_RATING_URL = \"https://adipoli.vercel.app/api/flight/stats\";\n\n  struct Flight {\n    string from;\n    string to;\n    string code;\n    string name;\n    string departureTime;\n    string arrivalTime;\n  }\n\n  struct Payment {\n    bool paid;\n    uint256 amount;\n    string txHash;\n  }\n\n  struct Policy {\n    string policyId;\n    string owner;\n    string date;\n    string[] products;\n    Flight flight;\n    Payment premium;\n    Payment payment;\n  }\n\n  enum PremiumRequestStatus {INIT, SENT, COMPLETED}\n\n  struct Premium {\n    bool init;\n    uint256 airportRating;\n    uint256 flightRating;\n    PremiumRequestStatus hasAirportRating;\n    PremiumRequestStatus hasFlightRating;\n  }\n\n  string[] policyIds;\n  mapping(string => bool) isPolicy;\n  mapping(string => Policy) policies;\n  mapping(string => Premium) premiums;\n  mapping(bytes32 => string) requests;\n\n  constructor() public {\n    setPublicChainlinkToken();\n\n    oracle = 0x3A56aE4a2831C3d3514b5D7Af5578E45eBDb7a40;\n    jobId = \"3b7ca0d48c7a4b2da9268456665d11ae\";\n    fee = 0.01 * 10 ** 18;\n  }\n\n  // Create a new policy.\n  function createNewPolicy(Policy memory _policy) public onlyOwner {\n    // Verify that the payment is valid.\n    uint256 _premium = calcPremiumHelper(_policy.policyId);\n    require(_premium <= _policy.premium.amount);\n\n    policies[_policy.policyId] = _policy;\n    isPolicy[_policy.policyId] = true;\n    policyIds.push(_policy.policyId);\n  }\n\n  function getUnpaidPolicies(string memory date)\n    public\n    view\n    onlyOwner\n    returns (Policy[] memory)\n  {\n    uint256 _count = unpaidPoliciesCount(date);\n    Policy[] memory _policies = new Policy[](_count);\n\n    uint256 _pushIndex;\n    for (uint _index = 0; _index < policyIds.length; ++_index) {\n      Policy memory _policy = policies[policyIds[_index]];\n\n      if (\n        _policy.payment.paid == false &&\n        equals(_policy.owner, '0x0') == false &&\n        equals(date, _policy.date)\n      ) {\n        _policies[_pushIndex] = _policy;\n        _pushIndex++;\n      }\n    }\n\n    return _policies;\n  }\n\n  // Get policy details.\n  function getPolicy(string memory _policyId)\n    public\n    view\n    onlyOwner\n    returns (Policy memory)\n  {\n    if (isPolicy[_policyId] == true) {\n      // Policy exists.\n      Policy memory _policy = policies[_policyId];\n      return _policy;\n    } else {\n      // Policy doesnt exist.\n      // Return a dummy.\n      string[] memory products;\n      Policy memory _policy = Policy(\n        \"0\",\n        \"0x0\",\n        \"\",\n        products,\n        Flight(\"\", \"\", \"\", \"\", \"\", \"\"),\n        Payment(false, 0, \"\"),\n        Payment(false, 0, \"\")\n      );\n      return _policy;\n    }\n  }\n\n  function getPremium(string memory _policyId)\n    public\n    view\n    onlyOwner\n    returns (uint256 _result)\n  {\n    // Calculate the premium if chainlink requests have all returned.\n    // Its done using weighted average.\n    _result = 0;\n    if (\n      premiums[_policyId].hasAirportRating ==\n      PremiumRequestStatus.COMPLETED &&\n      premiums[_policyId].hasFlightRating ==\n      PremiumRequestStatus.COMPLETED\n    ) {\n      _result = calcPremiumHelper(_policyId);\n    }\n  }\n\n  // Calculate the policy premium.\n  function calculatePremium(\n    string memory _policyId,\n    string memory _from,\n    string memory _flight\n  ) public onlyOwner {\n    // Set the initial state.\n    if (premiums[_policyId].init == false) {\n      premiums[_policyId].hasAirportRating = PremiumRequestStatus.INIT;\n      premiums[_policyId].hasFlightRating = PremiumRequestStatus.INIT;\n      premiums[_policyId].init = true;\n    }\n\n    // Send the chainlink requests to the oracles if not sent.\n    if (premiums[_policyId].hasAirportRating == PremiumRequestStatus.INIT) {\n      getAirportRating(_policyId, _from);\n    }\n    if (premiums[_policyId].hasFlightRating == PremiumRequestStatus.INIT) {\n      getFlightRating(_policyId, _flight);\n    }\n  }\n\n  function setAirportRating(bytes32 _requestId, uint256 _score)\n    public\n    recordChainlinkFulfillment(_requestId)\n  {\n    premiums[requests[_requestId]].hasAirportRating = PremiumRequestStatus\n      .COMPLETED;\n    premiums[requests[_requestId]].airportRating = _score;\n  }\n\n  function setFlightRating(bytes32 _requestId, uint256 _rating)\n    public\n    recordChainlinkFulfillment(_requestId)\n  {\n    premiums[requests[_requestId]].hasFlightRating = PremiumRequestStatus\n      .COMPLETED;\n    premiums[requests[_requestId]].flightRating = _rating;\n  }\n\n  function payPolicy(string memory _policyId, uint256 amount)\n    public\n    onlyOwner\n  {\n    require(isPolicy[_policyId] == true);\n    require(equals(policies[_policyId].owner, '0x0') == false);\n    require(policies[_policyId].premium.paid == true);\n    require(policies[_policyId].payment.paid == false);\n\n    policies[_policyId].payment.paid = true;\n    policies[_policyId].payment.amount = amount;\n  }\n\n  fallback() external payable {}\n\n  receive() external payable {}\n\n  /*\n   * HELPER FUNCTIONS\n   */\n\n  // Calculate the value based on weighted average.\n  // Flight Rating (based on historical performance) is given 70% weightage.\n  // Departure Airport Rating is given 30% weightage.\n  function calcPremiumHelper(string memory _policyId)\n    private\n    view\n    onlyOwner\n    returns (uint256 _result)\n  {\n    uint256 a = premiums[_policyId].flightRating.mul(7);\n    uint256 f = premiums[_policyId].airportRating.mul(3);\n    _result = a.add(f).div(10);\n  }\n\n  function getAirportRating(string memory _policyId, string memory _airport)\n    private\n    returns (bytes32 requestId)\n  {\n    string memory _url = string(\n      abi.encodePacked(GET_AIRPORT_DELAY_URL, \"?airport=\", _airport)\n    );\n\n    requestId = createRequestTo(_url, \"score\", this.setAirportRating.selector);\n\n    requests[requestId] = _policyId;\n    premiums[_policyId].hasAirportRating = PremiumRequestStatus.SENT;\n  }\n\n  function getFlightRating(\n    string memory _policyId,\n    string memory _flight\n  ) private returns (bytes32 requestId) {\n    string memory _url = string(\n      abi.encodePacked(GET_FLIGHT_RATING_URL, \"?flight=\", _flight)\n    );\n\n    requestId = createRequestTo(_url, \"score\", this.setFlightRating.selector);\n\n    requests[requestId] = _policyId;\n    premiums[_policyId].hasFlightRating = PremiumRequestStatus.SENT;\n  }\n\n /**\n  * @notice Creates a request to the specified Oracle contract address\n  * @dev This function ignores the stored Oracle contract address and\n  * will instead send the request to the address specified\n  * @param _url The URL to fetch data from\n  * @param _path The dot-delimited path to parse of the response\n  * @param _callbackFn The callback function to call once request is processed\n  */\n  function createRequestTo(\n    string memory _url,\n    string memory _path,\n    bytes4 _callbackFn\n  )\n    private\n    returns (bytes32)\n  {\n    Chainlink.Request memory req = buildChainlinkRequest(\n      jobId,\n      address(this),\n      _callbackFn\n    );\n    req.add(\"get\", _url);\n    req.add(\"path\", _path);\n    return sendChainlinkRequestTo(oracle, req, fee);\n  }\n\n  function equals(\n    string memory a,\n    string memory b\n  )\n    private\n    pure\n    returns (bool)\n  {\n    return (keccak256(abi.encodePacked((a))) == keccak256(abi.encodePacked((b))));\n  }\n\n  function unpaidPoliciesCount(string memory date)\n    private\n    view\n    returns(uint256)\n  {\n    uint256 resultCount;\n\n    for (uint _index = 0; _index < policyIds.length; ++_index) {\n      Policy memory _policy = policies[policyIds[_index]];\n\n      if (\n        _policy.payment.paid == false &&\n        equals(_policy.owner, '0x0') == false &&\n        equals(date, _policy.date)\n      ) {\n        resultCount++;\n      }\n    }\n\n    return resultCount;\n  }\n\n}\n",
  "sourcePath": "/home/robin/Workspace/adipoli/truffle/contracts/Adipoli.sol",
  "compiler": {
    "name": "solc",
    "version": "0.6.0+commit.26b70077.Emscripten.clang"
  },
  "schemaVersion": "3.4.1",
  "updatedAt": "2021-07-06T04:31:15.546Z",
  "networkType": "ethereum",
  "devdoc": {
    "details": "This contract is designed to work on multiple networks, including local test networks",
    "methods": {
      "isOwner()": {
        "details": "Returns true if the caller is the current owner."
      },
      "owner()": {
        "details": "Returns the address of the current owner."
      },
      "transferOwnership(address)": {
        "details": "Transfers ownership of the contract to a new account (`newOwner`). Can only be called by the current owner."
      }
    },
    "title": "Adipoli is a contract which requests data from the Chainlink network"
  },
  "userdoc": {
    "methods": {}
  }
}